S0140000436F6D707574657243616B652E737265634D
S113000009C019C018C017C016C015C014C013C049
S113001012C011C011241FBECFE9CDBF10E0A0E66D
S1130020B0E0E6E5F2E002C005900D92A436B10717
S1130030D9F702D00EC1E4CF83E087BB82E088BB4E
S1130040C2E3D0E0DD24D39404E610E0E12CF12CEB
S11300509AD0BE0127D00196E816F90674F4C09A26
S11300608FE493EC0197F1F700C0000088B38D256D
S113007088BB9FEFE91AF90AEBCF85D0B80112D0FB
S11300800A961816190614F720E030E0E7E8F3E1C1
S11300903197F1F700C000002F5F3F4F2817390751
S11300A0ACF3D4CF97FB072E16F4009406D077FD5B
S11300B008D00BD007FC05D03EF4909581959F4F56
S11300C00895709561957F4F0895AA1BBB1B51E15C
S11300D007C0AA1FBB1FA617B70710F0A61BB70BB4
S11300E0881F991F5A95A9F780959095BC01CD0159
S11300F008958F929F92AF92BF92CF92DF92EF9228
S1130100FF92CF93DF93EC01688179818A819B818F
S1130110611571058105910521F464E279ED8BE5A2
S113012097E02DE133EF41E050E055D049015A0109
S113013027EA31E440E050E035D06B017C012CEE3D
S113014034EF4FEF5FEFC501B4012CD0DC01CB01DC
S11301508C0D9D1DAE1DBF1DB7FF03C00197A109E6
S1130160B04888839983AA83BB839F77DF91CF911B
S1130170FF90EF90DF90CF90BF90AF909F908F90C3
S11301800895B7DF089580E690E0B3DF0895A0E016
S1130190B0E08093600090936100A0936200B093FC
S11301A063000895EE27FF27AA27BB2708C0A20FE4
S11301B0B31FE41FF51F220F331F441F551F9695CD
S11301C087957795679598F37040A9F7009799F705
S11301D0BD01CF010895052E97FB16F400940FD0AE
S11301E057FD05D014D007FC02D046F408C0509542
S11301F04095309521953F4F4F4F5F4F089590950F
S11302008095709561957F4F8F4F9F4F0895A1E220
S11302101A2EAA1BBB1BFD010DC0AA1FBB1FEE1F7C
S1130220FF1FA217B307E407F50720F0A21BB30BC7
S1130230E40BF50B661F771F881F991F1A9469F743
S113024060957095809590959B01AC01BD01CF019F
S10902500895F894FFCFAD
S1070256010000009F
S9030000FC
